:020000040800F2
:1000000088090020D1000008813B00083D2F00082E
:1000100000000000000000000000000000000000E0
:10002000000000000000000000000000653F000824
:1000300000000000000000009D3D0008694000082D
:10004000E3000008E3000008E3000008E300000804
:10005000E3000008E3000008E3000008E3000008F4
:10006000E3000008E3000008E3000008E3000008E4
:10007000E3000008E3000008E30000080142000874
:10008000E3000008E300000800000000E3000008AF
:10009000E3000008E3000008E3000008E3000008B4
:1000A000E3000008E3000008E30000082947000817
:1000B0009147000800000000E3000008034885465F
:1000C00000F0AAFC004800475153000888090020AE
:1000D0000448804704480047FEE7FEE7FEE7FEE7E6
:1000E000FEE7FEE7D5400008BD00000830B50B462E
:1000F000014600202022012409E00D46D5409D4202
:1001000005D31D469540491B254695404019154687
:10011000521E002DF1DC30BD10B5202A04DB08464C
:10012000203AD040002110BD0B46D340D0402024BF
:10013000A21A91400843194610BD10B5431A9342C4
:1001400009D28318881803E0401E01785B1E1970DD
:10015000521EF9D210BD03460B439B0703D009E0A2
:1001600008C9121F08C0042AFAD203E00B780370F2
:10017000401C491C521EF9D210BDD2B201E00270DF
:10018000401C491EFBD270470022F6E710B513460B
:100190000A4604461946FFF7F0FF204610BD30B569
:1001A00005462A460B4610781C78521C5B1C00281A
:1001B00001D0A042F7D0002C03D0002802D06D1C43
:1001C000EFE7284630BD421C0178401C0029FBD1D6
:1001D000801A704730B505460020034600E05B1CDE
:1001E000934205D2EC5CC85C201A01D1002CF6D1F8
:1001F00030BD70B5064604F00DFB046805460A22C2
:100200000021304600F0C8F92C6070BDF8B50246F8
:100210004A40D40F42004B0052085B089A4202D277
:100220000246084611464A0023D0C30D4A00DDB2FB
:10023000120EAD1A202D35DA49020126490AF605BB
:100240008A19002C00D0524220214F1B1146B94080
:100250002A411018C20D9A4221D0002C17D0012D2E
:1002600008DCDA05801AD20F8019D207DBB200F061
:10027000D3F9F8BDDA05801A012340001B06C01827
:1002800080185A428018CA0F1043490007E04908F5
:10029000C2071143DA05801A80194008801800F05F
:1002A000B3F9F8BD61000122511A001BF7E70122E2
:1002B000D2075140AAE70122D2075040A6E70246E2
:1002C00070B54A40D30FDB0740002DD04A002AD03A
:1002D000010E140E000212020919400A520A841873
:1002E000E50104465443000A120A2E045043A4199F
:1002F0004219200CC543AA18120C0125AD03521C4B
:10030000521912047F39240400D0521C104301D426
:100310004000491EC2B20C06C0092018401C40080B
:10032000802A02D003E0002070BD40084000002970
:1003300000DA0020184370BD70B502464A40D50F60
:1003400040004A00ED0740085208002814D0002A57
:1003500012D0C40DD30D41020120C0055202490A3A
:10036000520AE41A091812187D34914201D3641C10
:1003700000E04900002C01DA002070BD002391420A
:1003800001D3891A0343400849000028F7D1002906
:100390000AD0914202D10121C90705E0914201D260
:1003A000012101E00121C943E005C018401900F016
:1003B0002BF970BDC217C10F504010B54018CA07C5
:1003C0009623002100F028F910BD10B500229623D5
:1003D000114600F021F910BDC20F41004002012377
:1003E000400ADB05D207090EC0187F2901DA002078
:1003F0007047962903DC9623591AC84001E09639C4
:100400008840002AF4D040427047C20FD207400013
:1004100040080BD0C10D0723DB01C91840020905B4
:10042000400A1143C20840071143704700200146AB
:100430007047CB0FDB07490010B5490802460A4355
:1004400007D00A0D07240903E401090B121B002A37
:1004500001DC002010BDC900440F0C43C100E018AE
:10046000D205801800F0D0F810BD00000122D2079C
:10047000002800DB101A002900DB511A8142704766
:100480000122D207002800DB101A002900DB511AD4
:1004900088427047F0B51FB40646002082B005467A
:1004A0004024019100901BE0019922460F463046FE
:1004B000FFF732FE049A059B801A994110D310462B
:1004C0001946224600F0BAFA361A8F4101972246A1
:1004D00001200021009F00F0B1FA38184D41009032
:1004E0002046641E0028DFDC019B00982946324626
:1004F00007B0F0BD0FB400B589B00CA900910B99FD
:100500000023CB60204B214A0693079204220192DC
:100510001F4A02921F4A089202466B46002000F0D2
:100520003AFB09B008BC04B0184770B586B006465F
:100530000020C0430190002015460C460091029116
:1005400004903246694604A8FFF7D4FF0246049897
:100550002118002D05D0002801D0084600E02046D3
:100560002860049800280DD0002A02DD00988842F7
:1005700008D0081B0190009432466946029404A8F2
:10058000FFF7B8FF06B070BDED0D00080D0E0008B6
:10059000FFFFFF7F8D0A0008F7B5009C0F4600267D
:1005A0002578641C002D05D000F06CFA0068405DD1
:1005B000C007F5D12B2D02D02D2D18D0641E394641
:1005C0002046029A00F034FC002F04D03968A14282
:1005D00001D1009939607105022400290BDA4042EB
:1005E000002803DD04F016F90460A007FEBD012019
:1005F00080020643E3E70028F8DA04F00BF9046010
:100600000048FEBDFFFFFF7F002904DA401C4900BF
:1006100001D140084000704770B40024050C05D19A
:100620001024000402D1002921D01124050E01D18B
:1006300000020834050F01D10001241D850F01D1EE
:100640008000A41C002801DB4000641C002908D0A5
:1006500020252E1B0D46F540A14000D00121294345
:10066000084301061B1B000ADB1D02D5002070BCDD
:100670007047DB05181880180029F8DA401C49007B
:10068000F5D170BC4008400070470000F0B5074647
:100690000846584087B0C00F049048000E465900E5
:1006A00040084908BC1A884105D2384631461E46E2
:1006B00017460B4602465800400810434CD0300DF8
:1006C000039040055900400D490D0590401A0290D5
:1006D000402872DA18030121000B09050843019034
:1006E00004980092002805D00199524200208841C8
:1006F00000920190029840210A1A0199009800F096
:100700009DF905460C466B4607CB00F0A7F9C019CA
:100710007141039A0E0D0023D71756401A467A40AE
:10072000164344D0049A002A2DD0029A012A039A33
:1007300015DC1205C01A914101263605001C7141D5
:10074000D20F059ED2070093019202962A462346B5
:1007500000F0CEFB07B0F0BD38463146FAE716058B
:10076000224A0F46B218C01AB74101210905001CE0
:100770004F4100187F41114618187941E20F10438C
:100780006D19644113E0E2076D0815436408C20760
:100790001443039A01261205C01A91413605001C24
:1007A0007141CE07400830434908C01851412A46DC
:1007B000234600F090FBCDE7FFE7049801224000BC
:1007C000C117121A00238B4104983146C417381AF6
:1007D000A141EEE730B40124E407634030BC55E7A3
:1007E00030B40124E407614030BC4FE70000E0FF73
:1007F000F0B51FB488B00B990998002448400999B6
:10080000C00F490049080991C0070B9900904900A1
:1008100049080B9109990898A64608431CD00B99E2
:100820000A98084318D0099801244000420D480056
:10083000410D099824050003000B204309900B98F3
:100840000003000B20430B9050181C494018002255
:1008500001901446104605E0002001460DB0F0BDA1
:10086000032801DA034600E003239C46C11A0AAEBE
:100870000AE05F0008ADED5B4F00F75B7D430027AA
:10088000AA187C41491C5B1E6145F2DD410004ABA6
:100890005A522104120C0A43240C401C0828DFDBA6
:1008A000019802900099704601910090059B049A6E
:1008B0000799069800F01CFBD0E700000DFCFFFF35
:1008C000F0B50C465C4085B0E40FE40703944C009F
:1008D00000266408590094464908024602962243BD
:1008E00021D062460A431ED06200570D4A000E0313
:1008F0002303550D012402462C492405781B1B0BAC
:10090000360B401823432643614600901C46501A7C
:10091000B44103D30098401C009002E09218009864
:100920005B41002803DA0020014605B0F0BD00203D
:10093000012109050746864611E064461D46141B41
:10094000B54106D36546521BB341744607430C4379
:10095000A646CD0740084908284392185B41054642
:100960000D43EAD11046184313D060461946504053
:100970007140084306D06046101AB34106D20122E6
:10098000002306E000220123DB0702E00122D2431C
:100990005310009874460105381C6141029C039D68
:1009A0000019694100F097FABFE70000FD0300005D
:1009B0004A0009030123090B1B0519430A4B10B513
:1009C000520D9A4202DA0020014610BD064B343324
:1009D0009A4203DC9A1AFFF79FFB10BD034BD21813
:1009E00000F02CF810BD0000FF030000CDFBFFFF5E
:1009F00010B5002904DB0124E40740428C41214664
:100A0000002B04DB1C460123DB075242A341994221
:100A100000D1904210BD0000064C0125064E05E0B5
:100A2000E36807CC2B430C3C98471034B442F7D30F
:100A3000FFF748FB9C6E0008BC6E000810B5202A2A
:100A400004DB0146203A9140002010BD9140202354
:100A50009C1A0346E3401943904010BD10B5202A6C
:100A600006DBCB170846203A1041C1170B4306E0BE
:100A70000B461341D0402024A21A91400843194646
:100A800010BD0000004870471C6E000810B50446F9
:100A9000FFF7F8FF0068005DC007C00F10BD000041
:100AA000FFB5087885B01546FF2805D0491C2D28CC
:100AB00004D00022002407E000240BE00122F9E723
:100AC0000A235C430419491C0878FF28F8D1002A3E
:100AD00000D06442002001902A7801462D2A01D0DE
:100AE0002B2A04D16D1C2D2A0DD000220192002644
:100AF0002F78FF2F09D00A2200236D1C00F04AFA3C
:100B000038187141F4E70122F0E7089AA21803921D
:100B100002460A430DD00024B24AB14D2646009247
:100B200000F084FA049003980291002807DA474203
:100B30001AE0002105980A4606C009B0F0BD074634
:100B400012E0F80707D022462B4630460099FFF7FF
:100B50004FFE0646009122462B4610461946FFF7E7
:100B600047FE04460D467F10002FEAD10398009BF4
:100B7000002802990498324602DAFFF7A1FE01E04C
:100B8000FFF736FE019A002A02D00122D207514017
:100B9000059A03C2D1E7FFB591B000200990002566
:100BA000ED432E209E685C681F460190B9696D1C5C
:100BB000129888470090396A88470028F6D1009833
:100BC000401C0AD00D20C0018443002E12DD009885
:100BD0002B2809D02D280DD103E00020C04315B0EB
:100BE000F0BD012080020443B9696D1C129888474A
:100BF000761E009003A9600501D52D2000E02B2072
:100C00006A461073491C0CA80F9102900AE0B9695A
:100C10006D1C1298884700900120400204431398ED
:100C2000761E0560002E02DD00983028EFD0019975
:100C30000098884246D18020044308E00998401E6D
:100C400009900120400204431399681C0860B969A7
:100C50006D1C761E1298884700903028EED031E047
:100C60000199884205D1200603D480200443761ED2
:100C70001EE0009803F0A8FE002826D001204002C4
:100C8000044307A90F980331761E88420BD20098BF
:100C90000F99303808700F98401C0F90200607D528
:100CA0000998401E03E0200602D40998401C0990D0
:100CB000A00502D51399681C0860B9696D1C1298CB
:100CC00088470090002ECBDC59E0002E57DD0098BD
:100CD000652801D0452852D1A00550D50320000237
:100CE0008443B9696D1C761E129888470090002EC7
:100CF0000CDD2B2804D02D2808D1FF20013004431F
:100D0000B9696D1C12988847761E0090E00501D5E0
:100D10002D2100E02B21029801700298401C0290C6
:100D2000019025E00120400204430EA90298013100
:100D3000761E88420ED20098029930380006000EC6
:100D4000087003D10299019881420AD90298401C87
:100D5000029006E0E00501D5234801E02248404228
:100D60000990B9696D1C1298884700901398056026
:100D7000002E04DD009803F027FE0028D2D1F96987
:100D8000129888470F99FF200870029903AA0870EB
:100D900000200A900B900CA90AA8099BFFF780FE7F
:100DA000A00502D40120C04319E72420044209D041
:100DB000E00713D138680B9A0A99031D3B6000685D
:100DC00006C00BE00B990A98FFF733FB0146E007DA
:100DD00004D13868021D3A60006801602846FEE6CA
:100DE000000024400000F03FF1D8FFFF4268002AD5
:100DF00008D001680B78491C002B03D0521E06C096
:100E0000184670470121C160881E70474268002A59
:100E10000BD0C3680168002B07D183688B4204D0D4
:100E2000491E521C06C0002070470020C043704776
:100E3000F7B582B0029C00272078641C1546019704
:100E4000302802D0002D15D015E020780127641C31
:100E5000782804D0582802D0002D09D00BE0002DAE
:100E600001D0102D07D1002710252078641C02E046
:100E7000082500E00A250026009610E000990127C9
:100E800069430818020C294680B2714300908E18FD
:100E90003804864201D3012001902078641C294641
:100EA00000F0B5F80028E9DA0398002805D0002FF3
:100EB00001D0641E00E0029C04600198002806D066
:100EC00003F0A8FC02210160C81E05B0F0BD009926
:100ED00030040843F9E710B5002B08DA0024401C61
:100EE000614192185B411A4301D14008400010BD96
:100EF000F0B51FB482B005460C0003D0084603F0DD
:100F000063FC02E003F060FC2030024600902146C2
:100F10002846FFF793FD049B059A04460F461843A5
:100F20001143084314D0184610431BD000984021A9
:100F30000A1A18460599FFF7EFF805460E46009A7B
:100F400005990498FFF77AFD084305D0012004E0D5
:100F50002046394607B0F0BD0020C11705430E43B7
:100F60002C43374300990E986305401A7905E40A2B
:100F700000220C43FD0A0A3002D500200146E9E7B1
:100F80000105101969410C9C0D9D00196941FFF77D
:100F9000A2FFDFE7F0B51FB486B0002000900190FB
:100FA00002900698069980B204900798090C0204F2
:100FB0000014114307900027089D099806913E46AA
:100FC0003C4603900398A9B20204000C03900498D5
:100FD0002D0C1543484300212246FFF72FFDC7196A
:100FE000714110340E46402CECDB3846029AFFF774
:100FF00025FD009A019B80180090594102980191AB
:10100000103002904028CCDB00980BB0F0BD3A289D
:1010100000D23038202302469A43412A01D3104699
:101020003738884201D30020C04370470EB5054AC7
:1010300002920022009213460192FFF759FF03B07B
:1010400000BD00003304000010B504460122022157
:101050000920C00600F07DFE204600F065FD00225C
:1010600002210920C00600F074FE10BD70B50446D0
:101070000025002C00D170BD1F4A91682068FFF741
:10108000FFF901D2012522E01B4AD1682068FFF751
:10109000EDF901D202251AE0174A11696068FFF7DD
:1010A000EFF901D2032512E0134A5169A068FFF756
:1010B000E7F90BD3104A5169E068FFF7E1F905D36E
:1010C0000D4A51692069FFF7DBF900D204250B486E
:1010D0000078002805D1002D03D0284600F0AAF89A
:1010E00007E006480078002803D0002D01D100F069
:1010F00007F800BFBFE700005000002014000020E8
:1011000010B50020074908700749C8700022114631
:10111000104600F061F8002202210920C00600F00C
:1011200018FE10BD140000205000002000B587B04C
:10113000142102A8FFF728F800BF234840690121C5
:10114000490408432049486108464069012149048F
:101150000840019000BF00BF00BF1B484069490024
:10116000084319494861084640690121890408403B
:10117000019000BF00BF02200290012003900020D8
:101180000490059002A90920C00600F0DDFC0720AC
:1011900002900120039000200490059002A90B48C2
:1011A00000F0D2FC002202210920C00600F0D1FD8F
:1011B00000220721054800F0CCFD002004490870FA
:1011C0000449C87007B000BD001002400004004888
:1011D000140000205000002070B504460D4616464D
:1011E000002C01D0012000E00020024601210C4823
:1011F00000F0AFFD002D01D0012000E000200246EC
:101200000221074800F0A5FD002E01D0012000E0DA
:10121000002002460421024800F09BFD70BD000042
:101220000004004810B50248FFF720FF10BD000081
:101230002400002070B504461D480470230003F00C
:10124000DAFA0622040A10161C2200221146012096
:10125000FFF7C2FF1DE0012200210846FFF7BCFF97
:1012600017E0002201211046FFF7B6FF11E000222F
:1012700001210846FFF7B0FF0BE0012200211046D4
:10128000FFF7AAFF05E0012211461046FFF7A4FF71
:1012900000BF00BF01200749C870C820FFF7D4FE77
:1012A000204600F011F8054603A102F0CFF970BD09
:1012B0001400002050000020416C61726D20747297
:1012C000696767657265640000B501460B0003F04D
:1012D00092FA060E0406080A0C0E06A000BD08A02D
:1012E000FCE70AA0FAE70CA0F8E70DA0F6E70FA0CC
:1012F000F4E7000054454D505F484947480000005E
:1013000054454D505F4C4F570000000048554D5F0D
:101310004849474800000000414343454C00000055
:101320004750535F46454E4345000000554E4B4ED7
:101330004F574E0010B502F09BFE02F01DFB02F06D
:10134000FBFB02F0A9FB02F0CDFB10BD00B587B09E
:10135000142102A8FEF718FF00BF124840690121BE
:10136000490408430F49486108464069012149047E
:101370000840019000BF00BF202002901120039080
:10138000012004900320059002A90920C00600F066
:10139000DBFB012220210920C00600F0DAFC00203E
:1013A00007B000BD0010024070B5054600240026BD
:1013B0001DE06006040EC821002000F0FFF80028A0
:1013C00001D0022070BD282003F0C8FE2021092092
:1013D000C00600F0B1FC012800D10443C82101205F
:1013E00000F0ECF8002801D00320EBE7761C082E73
:1013F000DFDB2C700020E5E7F0B58BB004460E462D
:10140000002009900A90002C01D0002E02D101206A
:101410000BB0F0BD002220210920C00600F099FC8D
:10142000644803F09BFE012220210920C00600F041
:1014300090FC282003F092FE142104A8FEF7A4FEDD
:1014400020200490002005900120069004A9092086
:10145000C00600F079FB642715E0781EC0B2071EB5
:101460000ED11120059004A90920C00600F06CFBE4
:10147000012220210920C00600F06BFC0220C7E7F2
:10148000022003F06BFE20210920C00600F054FC6E
:101490000128E2D0642715E0781EC0B2071E0ED1E5
:1014A0001120059004A90920C00600F04DFB01227F
:1014B00020210920C00600F04CFC0320A8E70220F0
:1014C00003F04CFE20210920C00600F035FC002866
:1014D000E2D00020019018E009AA01995018FFF706
:1014E00063FF00280ED01120059004A90920C00632
:1014F00000F02AFB012220210920C00600F029FC6F
:10150000052085E70198401C019001980528E3DB40
:101510001120059004A90920C00600F015FB012246
:1015200020210920C00600F014FC08A801794079A8
:10153000091808A88079091808A8C0790818C0B245
:10154000039008A8017A0398814201D004205FE744
:1015500008A80079010208A840790843029008A869
:101560008079050208A9C9790D430298FEF72DFF7D
:1015700011490190FEF7A3FE30600120C00328400E
:1015800000280DD06D046D0C2846FEF71EFF0A4999
:101590000190FEF794FE0121C9074840206007E052
:1015A0002846FEF712FF04490190FEF788FE2060EE
:1015B00000202DE7204E0000CDCCCC3D70B5044678
:1015C0000D4608E0681E80B2051E01D1012070BDE5
:1015D000012003F0C3FD20210920C00600F0ACFB70
:1015E000A042EFD00020F2E710B5064906A000F0B7
:1015F00083F8002801D0012010BD002005490870A3
:1016000000BFF9E7B80B000041542B434950434C4D
:101610004F5345000E00002030B5A1B004460D46E2
:1016200023460AA2802101A8009503F0B3F80C49D3
:1016300001A800F061F8002802D0012021B030BDDF
:101640000120084908700020F8E7000041542B43AE
:10165000574A41503D222573222C22257322000037
:10166000102700000D00002010B5032400F02EF814
:101670007D20C00000F058FA07E07D2109010FA08D
:1016800000F03AF8002800D104E02046611ECCB2F8
:101690000028F2D100BF002C01D1012010BDC820CC
:1016A00000F042FA7D21090105A000F025F800288C
:1016B00001D00220F2E70020F0E7000041540000D2
:1016C00041542B43574D4F44453D310010B505491A
:1016D00005A000F011F800200549087005490870C0
:1016E00010BD0000B80B000041542B5253540000B1
:1016F0000D0000200E000020F8B504460D46002025
:101700001D4908801D4908702046FEF75CFD87B220
:101710001B4B3A4621461B4801F098FB184B02220E
:1017200019A1184801F092FB00F01AFB06461CE0D4
:1017300012480078002815D014A11548FEF72FFD97
:10174000002801D00020F8BD12A11148FEF727FDA6
:10175000002805D111A10E48FEF721FD002801D077
:101760000220F0E70A2003F0F3FC00F0F9FA801BF6
:10177000A842DDD30120E6E70A0000200C0000208B
:1017800088130000700000200D0A00004F4B00007D
:10179000840300204552524F520000004641494CFC
:1017A00000000000F0B589B005460C460020304925
:1017B00008803049087023462FA2202101A802F09A
:1017C000E9FF01A8FEF7FFFC87B22F4B3A4601A9BB
:1017D0002E4801F03BFB2C4B02222DA12B4801F09F
:1017E00035FB00F0BDFA06460DE0224800780028DF
:1017F00006D028A12848FEF7D2FC002800D008E037
:101800000A2003F0A5FC00F0ABFA801B23498842B4
:10181000EBD300BF17480078002802D1012009B09F
:10182000F0BD00201249088012490870164B22466C
:101830002946164801F00AFB00F092FA06460EE02F
:101840000C480078002807D015A11348FEF7A7FC24
:10185000002801D00020E2E70A2003F079FC00F024
:101860007FFA801B08498842EAD30220D7E70000AC
:101870000A0000200C00002041542B4349505345DE
:101880004E443D25750000008813000070000020C4
:101890000D0A00003E00000084030020B80B000089
:1018A00053454E44204F4B0030B5A1B004460D4681
:1018B0000D480078002801D0FFF796FE23460BA2C2
:1018C000802101A8009502F065FF7D21890101A812
:1018D000FFF712FF002802D0012021B030BD012007
:1018E000014908700020F8E70E00002041542B4306
:1018F000495053544152543D22544350222C2225E6
:1019000073222C25750000001F20C00201F0A6FCE8
:1019100000BFFEE700B587B0142102A8FEF734FC33
:1019200000BF0F4840690121490408430C49486140
:1019300008464069012149040840019000BF00BFEA
:1019400001200290002003900120049002A90920A8
:10195000C00600F0F9F800200249088007B000BD79
:10196000001002400800002070B500247D22D20043
:10197000FF210131134802F012FB0546002D01D171
:10198000012070BD104805802A460E490F48FEF719
:10199000D4FB12E00B48005D24280CD1094908193A
:1019A00006220BA1FEF716FC002804D105490819F0
:1019B00002F024F9E5E7601C84B2AC42EADB0220C5
:1019C000DFE70000840200200800002084010020DE
:1019D0002447504747410000FFB50C4600990025B9
:1019E000002305E008782C2801D1681CC5B2491CE9
:1019F0000878002801D0A542F4DB0878002805D03B
:101A000008780D2802D008780A2802D1012004B0F5
:101A1000F0BD05E00E7818465F1CFBB21654491C59
:101A2000087800280FD008782C280CD008780D28CA
:101A300009D008780A2806D008782A2803D0039805
:101A4000401E9842E6DC0020D05400BFDFE710B50E
:101A500000F086F910BD0000FFB58BB000254AE00C
:101A60001498405DA12801DB0FB0F0BD1498405DD3
:101A70000990099800010890002706E00898C0190D
:101A80002049085C6946C8557F1C102FF6DB0026EC
:101A90002EE0002429E02046E117490F0918C9105B
:101AA000C900611A0A916846805D80220A990A413C
:101AB000104000280CD00B980019EA00801883B25F
:101AC0000C98301881B218460D9A00F01DF80BE002
:101AD0000B980019EA00801883B20C98301881B274
:101AE00018460E9A00F010F8641C082CD3DB761C04
:101AF000102ECEDB6D1C1498FEF765FBA842AFD804
:101B000000BFB1E73F5B000870B504460D461646BE
:101B1000681C83B2601C82B22946204601F0D6FBC5
:101B2000304601F071FB70BD31B500F019F9054682
:101B3000009C601C002800D0641C00BF00F010F95D
:101B4000401BA042FAD338BD78B5034600220024DA
:101B50000020DEE0012696400D6835402C46002C22
:101B60007ED04D68022D02D04D68122D15D1D508BA
:101B7000AE001D462035A8595507EE0E0F25B5407D
:101B80000646AE4330465607F60E0D69B54028436B
:101B9000D508AD001E462036705118685600032542
:101BA000B5400646AE4330460D79AD07AD0F560041
:101BB000B540284318604D68012D08D04D68022DAE
:101BC00005D04D68112D02D04D68122D18D198689E
:101BD00056000325B5400646AE4330465600CD6854
:101BE000B540284398605868012595400646AE43A5
:101BF000304610264D6835402D09954028435860E1
:101C0000D86856000325B5400646AE433046560018
:101C10008D68B5402843D860012636074D683540A9
:101C2000B54275D100BF3E4DAD69012635433C4EEE
:101C3000B5613546AD69ED07ED0F009500BF00BFFA
:101C4000384D9608B600A85995072E0F0F25B540B8
:101C50000646AE4330460925ED06AB4203D100E00F
:101C600056E000250FE0304DAB4201D101250AE0DE
:101C70002E4DAB4201D1022505E02D4DAB4201D1E5
:101C8000032500E005259607360FB5402843254D6E
:101C90009608B600A851274D28680546A543284652
:101CA000012636044D683540B54202D1054625432C
:101CB0002846204D286068680546A5432846012629
:101CC00076044D683540B54202D105462543284685
:101CD000184D6860A8680546A543284601263605C4
:101CE0004D683540B54202D1054625432846114D81
:101CF000A860E8680546A5432846012676054D6894
:101D00003540B54202D1054625432846094DE860D5
:101D1000521C0D68D540002D00D01BE778BD000097
:101D2000001002400800014000040048000800487C
:101D3000000C004800040140024613690B40002BD0
:101D400001D0012000E00020704742694A40426112
:101D50007047002A01D0816100E081627047000075
:101D600001480068704700001C000020024800681D
:101D7000401C0149086070471C00002010B506484F
:101D800000681021084304490860002000F006F8AC
:101D900000F018F8002010BD0020024070B5044685
:101DA00000F010F906467D21C900FEF79FF90546AF
:101DB00000F0DAFD00222146501E00F02FF800202E
:101DC00070BD000008B500BF0D48806901210843BF
:101DD0000B49886108468069C007C00F009000BFAA
:101DE00000BF00BF0846C069090408430449C86130
:101DF0000846C06909040840009000BF00BF08BD44
:101E00000010024000BFC206D20E01219140024ADA
:101E1000116000BF7047000000E100E070B50446AB
:101E20000D4616462946204601F0ACFE70BD000066
:101E300070B504460D4600265D480068C007C00F17
:101E4000A8420ED25A48006840084000284358492A
:101E5000086008460068C007C00FA84201D00120F2
:101E600070BD022120680840022807D1514840680F
:101E7000F0218843A16808434E4948602078C00794
:101E8000C00F00285FD06068012808D14948006869
:101E9000012149040840002815D10120E0E76068CD
:101EA000022808D14348006801214906084000285B
:101EB00009D10120D4E73F480068022108400028EA
:101EC00001D10120CCE73B48406880088000616870
:101ED000084338494860FFF743FF06466068012819
:101EE0000FD107E0FFF73CFF801B3349884201D93F
:101EF0000320B5E72F4840680C2108400428F1D1A1
:101F000021E0606802280FD107E0FFF729FF801B5E
:101F10002949884201D90320A2E7264840680C21BC
:101F200008400828F1D10EE007E0FFF719FF801BF9
:101F30002149884201D9032092E71E4840680C21BC
:101F400008400028F1D11A480068C007C00FA84215
:101F50000ED917480068400840002843144908601B
:101F600008460068C007C00FA84201D0012077E7EB
:101F7000042120680840042808D10E484068072141
:101F800009028843E16808430A49486000F032F8D2
:101F900008494968F02211400909084A515CC840C3
:101FA000074908600020FFF7F9FE002058E700000D
:101FB000002002400010024088130000826D0008DB
:101FC0001800002001480068704700001800002039
:101FD00000B5FFF7F7FF05494968072212021140D3
:101FE000090A034A515CC84000BD000000100240CD
:101FF000926D0008F0B589B024A001460EC9C068F2
:1020000005AC0EC4089025A001460EC9C06801ACFD
:102010000EC4049000240027002500260020009014
:10202000224844680C202040002827D0042802D0F1
:10203000082822D102E01E48009022E00F208004F0
:102040002040800C05A90E5C1848C06A0007000FEC
:1020500001A90F5C012000042040012109048842ED
:1020600006D139461248FEF741F87043054602E0B2
:10207000104835464543009503E000BF0C480090EA
:1020800000BF00BF009809B0F0BD000002030405C6
:10209000060708090A0B0C0D0E0F101001020304AD
:1020A00005060708090A0B0C0D0E0F100010024060
:1020B00000127A0000093D00F8B50446002520789A
:1020C000C007C00F002871D0F94840680C210840B3
:1020D00004280BD0F64840680840082812D1F4487C
:1020E000406801210904084088420BD1F04800688B
:1020F00001214904084000286BD06068002868D19D
:102100000120F8BD00BF6068012807D1E8480068D9
:10211000012109040843E649086031E060680028AD
:102120000ED1E3480068012109048843E0490860B2
:1021300008460068012189048843DD4908601FE0E2
:10214000606805280ED1DA48006801218904084337
:10215000D749086008460068012109040843D449AA
:1021600008600DE0D2480068012109048843D04985
:10217000086008460068012189048843CC4908604A
:1021800000BF6068002812D0FFF7EAFD054606E0B0
:10219000FFF7E6FD401B642801D90320B1E7C448DE
:1021A00000680121490408400028F1D011E0FFF740
:1021B000D7FD054606E0FFF7D3FD401B642801D993
:1021C00003209EE7BA48006801214904084000281E
:1021D000F1D1022120680840022861D1B44840684A
:1021E0000C21084000280BD0B1484068084008285E
:1021F0001BD1AF484068012109040840002814D1D0
:10220000AB48006802210840002804D0E06801289B
:1022100001D0012075E7A6480068F82188432169AC
:10222000C9000843A24908603AE0E068002820D0CD
:102230009F480068012108439D490860FFF790FD11
:10224000054606E0FFF78CFD401B022801D903205C
:1022500057E797480068022108400028F2D09448C8
:102260000068F82188432169C90008439049086043
:1022700016E08F480068400840008D490860FFF76D
:102280006FFD054606E0FFF76BFD401B022801D9F4
:10229000032036E786480068022108400028F2D172
:1022A000082120680840082831D1E069002817D0AB
:1022B0007F48406A012108437D494862FFF750FD8D
:1022C000054606E0FFF74CFD401B022801D903201C
:1022D00017E77748406A022108400028F2D016E04C
:1022E0007348406A4008400071494862FFF738FD72
:1022F000054606E0FFF734FD401B022801D9032004
:10230000FFE66B48406A022108400028F2D1042110
:1023100020680840042871D100266548C0698906F4
:10232000084000280DD100BF6148C06908436049DA
:10233000C8610846C06909040840009000BF00BF9A
:1023400001265C480068FF2101310840002816D1B1
:1023500058480068084357490860FFF701FD0546E3
:1023600006E0FFF7FDFC401B642801D90320C8E606
:1023700050480068FF21013108400028F1D000BF1B
:10238000A068012806D14A48006A0121084348494B
:1023900008622BE0A06800280CD14548006A40087C
:1023A0004000434908620846006A042188434049C6
:1023B00008621BE0A06805280CD13D48006A042192
:1023C00008433B4908620846006A0121084338492E
:1023D00008620BE03648006A400840003449086251
:1023E0000846006A042188433149086200BFA0689A
:1023F000002813D0FFF7B4FC054608E029E0FFF7FA
:10240000AFFC401B2C49884201D9032079E62848BB
:10241000006A022108400028F1D011E0FFF7A0FC7B
:10242000054607E0FFF79CFC401B2349884201D981
:10243000032066E61E48006A022108400028F1D108
:10244000012E05D11A48C069310788431849C8616F
:1024500000BF10212068084010285FD16069012862
:102460002CD11348406B04210843114948630846A6
:10247000406B012108430E494863FFF771FC054694
:1024800006E0FFF76DFC401B022801D9032038E667
:102490000748406B022108400028F2D00448406BF6
:1024A000F8218843A169C90008430149486335E020
:1024B0000010024000700040881300006069401D59
:1024C00000280FD14E48406B042188434C49486393
:1024D0000846406BF8218843A169C9000843484970
:1024E00048631BE04648406B042108434449486365
:1024F0000846406B400840004863FFF731FC054642
:1025000006E0FFF72DFC401B022801D90320F8E567
:102510003B48406B022108400028F2D1206A002885
:102520006CD0374840680C210840082864D0206AE5
:10253000022847D132480068012109068843304902
:102540000860FFF70DFC054606E0FFF709FC401B9D
:10255000022801D90320D4E5294800680121490651
:1025600008400028F1D100BF2548C06A00090001D9
:10257000E16A08432249C862616AA06A08432049A7
:1025800049683D221204914308431D49486000BF39
:102590000846006801210906084319490860FFF749
:1025A000DFFB054606E0FFF7DBFB401B022801D9F5
:1025B0000320A6E5124800680121490608400028CA
:1025C000F1D01BE00E4800680121090688430C4940
:1025D0000860FFF7C5FB054606E0FFF7C1FB401B9F
:1025E000022801D903208CE505480068012149062D
:1025F00008400028F1D101E0012082E5002080E5BB
:102600000010024070B50446002C01D1012070BDBD
:10261000606A002800D100BF0021A1625D20005D3A
:10262000002804D15C200155204600F059F8022111
:102630005D200155206800684021884321680860BA
:1026400007210902E068884201D9002501E001253F
:102650002D030F210902E068884206D007210902F4
:10266000E068884201D00021A162206B002809D1D6
:1026700007210902E068884202D90221216301E0B2
:1026800001212163A16860680843216908436169E9
:10269000084301225202A16911400843E16908433D
:1026A000216A0843A16A084321680860A069000CF8
:1026B00004210840616A0843616B0843E1680843EC
:1026C0002843216848602068C069910088432168D8
:1026D000C8610020206601215D200155002096E799
:1026E00010B586B00446142101A8FDF74DFD23491D
:1026F0002068884240D100BF21488069891408437E
:102700001F4988610846806989140840009000BF0D
:1027100000BF00BF1A484069890108431849486151
:1027200008464069012189040840009000BF00BFAD
:1027300000BF1348406949100843114948610846E1
:102740004069012149040840009000BF00BF0820F3
:1027500001900220029000200390032004900020AA
:10276000059001A90748FFF7EFF98020019001A922
:102770000920C006FFF7E8F906B010BD003001409F
:102780000010024000040048FEB504460D461746FE
:102790001E4600200290019007210902E06888424D
:1027A00001D8012F00D900BF00BF5C20005D0128C7
:1027B00001D10220FEBD01215C20015500BFFFF7C1
:1027C000CFFA02905D20005D012802D00220019026
:1027D000BFE0002D01D0002F02D101200190B8E010
:1027E00003215D20015500202066A563A787E787A8
:1027F000206400214420015346200153002020651D
:10280000E0640121C903A068884205D120680068FE
:10281000491008432168086020680068402108408A
:10282000402804D020680068084321680860072118
:102830000902E06888422DD96068002802D0E08F44
:10284000012806D128882168C860AD1CE08F401E91
:10285000E0871BE02068806802210840022807D139
:1028600028882168C860AD1CE08F401EE0870DE01D
:10287000002E08D0701C002808D0FFF771FA0299CA
:10288000401AB04202D30320019062E0E08F00289A
:10289000E0D142E06068002802D0E08F012811D129
:1028A000E08F012807D928882168C860AD1CE08F17
:1028B000801EE08706E02878216808736D1CE08F91
:1028C000401EE08726E02068806802210840022838
:1028D00012D1E08F012807D928882168C860AD1C73
:1028E000E08F801EE08715E02878216808736D1C52
:1028F000E08F401EE0870DE0002E08D0701C0028FD
:1029000008D0FFF72DFA0299401AB04202D30320F3
:1029100001901EE0E08F0028D5D131462046029A72
:1029200001F03DFA002801D020202066A068002890
:1029300009D100BF00902068C068009020688068BE
:10294000009000BF00BF206E002801D00120019040
:1029500000BF01215D20015500BF00215C20015511
:1029600000BF019826E7000070B504462546681EA2
:102970000949884201D901200CE0681E07494861D5
:102980000321081F01F0FEF8002004498861072098
:102990000861002070BD0000FFFFFF0000E000E0C4
:1029A0007047704710B50446002C01D1012010BDBE
:1029B0003D20005D002805D100213C200155204626
:1029C00000F00CF802213D200155211D206801F086
:1029D0001FFC01213D2001550020E8E738B50446E1
:1029E000012189072068884215D100BF0A48C069C3
:1029F000012108430849C8610846C069C007C00FE3
:102A0000009000BF00BF002205210F20FFF706FA4B
:102A10000F20FFF7F7F938BD00100240F8B5044663
:102A20000D46002600BF3C20005D012801D1022098
:102A3000F8BD01213C20015500BF02213D20015578
:102A4000206886687721304688430646FF210902C0
:102A500030468843064620688660286850283ED065
:102A60000CDC202863D004DC002856D0102868D164
:102A700058E0302860D0402863D144E0602838D046
:102A800070280DD001210903401A02D0401A58D1F4
:102A900017E020688068C008C0002168886051E0A5
:102AA000EB686A68A968206801F00AFC20688668FB
:102AB00077213046884306467720064320688660A3
:102AC00040E0EB686A68A968206801F0F9FB2068BB
:102AD00080680121890308432168886032E0EA6840
:102AE0006968206801F008FC5021206801F0F7FBBC
:102AF00028E0EA686968206801F019FC6021206814
:102B000001F0EDFB1EE0EA686968206801F0F4FB63
:102B10004021206801F0E3FB14E00021206801F06F
:102B2000DEFB0FE01021206801F0D9FB0AE0202134
:102B3000206801F0D4FB05E03021206801F0CFFBD4
:102B400000E000BF00BF01213D20015500BF002172
:102B50003C20015500BF00206AE7704710B50446CD
:102B60002068006902210840400800281CD0206825
:102B7000C06808404008002816D0481F2168086136
:102B800001202077206880698007800F002803D00B
:102B90002046FFF7E2FF05E0204600F0C3F820469C
:102BA00000F0C1F800202077206800690421084067
:102BB000800800281DD02068C068084080080028D0
:102BC00017D0C843216808610220207720688069F7
:102BD000032109020840002803D02046FFF7BDFF6B
:102BE00005E0204600F09EF8204600F09CF800200A
:102BF00020772068006908210840C00800281CD000
:102C00002068C0680840C008002816D0C843216862
:102C10000861042020772068C0698007800F0028A1
:102C200003D02046FFF799FF05E0204600F07AF830
:102C3000204600F078F800202077206800691021F5
:102C40000840000900281DD02068C068084000091D
:102C5000002817D0C8432168086108202077206821
:102C6000C069032109020840002803D02046FFF76D
:102C700074FF05E0204600F055F8204600F053F8B8
:102C80000020207720680069C007C00F012148405C
:102C9000484000280CD02068C068084048404840A0
:102CA000002805D0C81E21680861204600F03CF8C5
:102CB0002068006980210840C00900280BD02068E6
:102CC000C0680840C009002805D0C84321680861D1
:102CD0002046FFF765FE2068006940210840800912
:102CE00000280BD02068C06808408009002805D063
:102CF000C84321680861204600F017F82068006981
:102D000020210840400900280BD02068C0680840F6
:102D10004009002805D0C843216808612046FFF714
:102D200040FE10BD704770477047704710B50446AD
:102D3000002C01D1012010BDA069002800D000E0C6
:102D400000BF6920005D002805D1002168200155E1
:102D5000204600F02DF824216920015520680068E4
:102D60004008400021680860204601F0B3FB0128BC
:102D700000D1E0E7606A002802D0204601F0F2FAB4
:102D8000206840680921C90288432168486020689A
:102D900080682A21884321688860206800680121B2
:102DA000084321680860204601F054FBC3E7000097
:102DB00010B586B00446142101A8FDF7E5F92149B4
:102DC000206888423CD100BF1F48806901218903E7
:102DD00008431D498861084680690121890308402C
:102DE000009000BF00BF00BF17484069C9000843FA
:102DF000154948610846406901214904084000908E
:102E000000BF00BF0812019002200290032004902E
:102E100001A90920C006FEF797FE0120800201905B
:102E200000200290039001A90920C006FEF78CFE45
:102E3000002206211B20FEF7F1FF1B20FEF7E2FF18
:102E400006B010BD0038014000100240FEB5044637
:102E50000D4616461F46002001906920005D20287F
:102E60006AD1002D01D0002E01D10120FEBD01212B
:102E70000903A068884208D12069002805D1E80725
:102E8000C00F002801D00120F0E700BF6820005DDE
:102E9000012801D10220E9E701216820015500BF86
:102EA0000020E066212169200155FEF759FF0190BD
:102EB000502006535220065325E05220005B401E4E
:102EC00081B2522001530097002280212046019BAD
:102ED00001F0F2FB002801D00320C7E7012109031C
:102EE000A06888420BD12069002808D10295029D74
:102EF0002888C005C00D21680885AD1C03E028782E
:102F00006D1C216808855220005B0028D5DC0097E5
:102F1000002240212046019B01F0CEFB002801D079
:102F20000320A3E720216920015500BF002168206C
:102F3000015500BF002099E7022097E700BFFEE798
:102F400000B587B0142102A8FDF71EF900BF27487D
:102F50004069012149040843244948610846406901
:102F6000012149040840019000BF00BF00BF1F4875
:102F70004069490008431D494861084640690121EC
:102F800089040840019000BF00BFC81002900120D2
:102F9000039004900320059002A90920C006FEF7C3
:102FA000D3FDFF200130029002A90920C006FEF7E0
:102FB000CBFD1020029002A90920C006FEF7C4FD37
:102FC0000122D1030920C006FEF7C3FE0022FF2123
:102FD00001310920C006FEF7BCFE012210210920A4
:102FE000C006FEF7B6FE07B000BD000000100240AC
:102FF000F0B58BB0002004905F237F2200210846AB
:1030000000F064F9002000F029F95D48C07800283C
:1030100002D01F20C00204905A494868FDF7F5F914
:1030200004460D4657490868FDF7EFF956A26B466E
:1030300033C3182105A801F0ADFB05A800903F227D
:10304000520100210846049BFEF706FD4C48C0785B
:10305000002809D051A0544B1F22D2021421009005
:103060000020FEF7F9FC33E045480078002813D033
:103070004348807800280FD041484CA2182183692A
:1030800005A801F087FB05A800234C4A14210090F5
:103090001846FEF7E1FC1BE039480078002808D00C
:1030A00047A00023404A142100901846FEF7D4FCA4
:1030B0000EE0334846A21821836905A801F06AFB97
:1030C00005A80023464A142100901846FEF7C4FCC8
:1030D0002B488078002825D02A494869FDF795F9C2
:1030E00040A201910090182105A801F053FB05A80A
:1030F00000231F22282100901846FEF7ADFC21492D
:103100008869FDF782F93AA201910090182105A87B
:1031100001F040FB05A800231F223821009018462B
:10312000FEF79AFC164835A21821C36905A801F0DC
:1031300031FB05A800231C4A1F324C210090184681
:10314000FEF78AFC7F231A467021002000F0BEF8AB
:103150000B48C078002804D01F20C00200F07EF881
:103160000BE007484078002804D03F20400100F0E1
:1031700075F802E01A4800F071F80BB0F0BD0000DD
:103180005000002024000020543A252E31664320B0
:10319000483A252E316625250000000021212041D6
:1031A0004C41524D20212100E0FF00005769466943
:1031B0002B47505320256C7573000000FF0700005B
:1031C00057694669204F4B204E6F4750530000000F
:1031D000557074696D653A20256C757300000000A8
:1031E000108400004C61743A252E34660000000003
:1031F0004C6F6E3A252E346600000000506B7473DD
:103200003A256C75000000001CB50446211201919E
:10321000E1B2009100220121C9030920C006FEF796
:1032200098FD012211020920C006FEF792FD094B0C
:10323000012201A90848FFF7A7FA064B01226946B7
:103240000548FFF7A1FA0122D1030920C006FEF7C5
:1032500080FD1CBDFF0F0000E000002070B5064699
:103260007F231A460021084600F030F82C2000F099
:1032700079F8002408E0002503E03046FFF7C4FF9A
:103280006D1C802DF9D3641C802CF4D370BD10B557
:10329000FFF756FE012000F065F87820FEF744FCA9
:1032A000112000F05FF87820FEF73EFC362000F099
:1032B00059F8C82000F036F83A2000F053F80520FD
:1032C00000F030F8292000F04DF810BDF8B50446A4
:1032D0000D4616461F462A2000F044F8002000F054
:1032E00021F8A11CC8B200F01DF8002000F01AF867
:1032F000B11CC8B200F016F82B2000F033F8002003
:1033000000F010F8E91CC8B200F00CF8002000F042
:1033100009F8F91CC8B200F005F82C2000F022F8DA
:10332000F8BD000001B500220121C9030920C00633
:10333000FEF70FFD012211020920C006FEF709FD6C
:10334000064B012269460648FFF71EFA0122D10307
:103350000920C006FEF7FDFC08BD0000FF0F0000BD
:10336000E000002001B500220121C9030920C006A8
:10337000FEF7EFFC0022FF2101310920C006FEF715
:10338000E8FC064B012269460548FFF7FDF90122DA
:10339000D1030920C006FEF7DCFC08BDFF0F0000CA
:1033A000E000002000B587B0142102A8FCF7ECFE75
:1033B00000BF204840690121490408431D49486174
:1033C00008464069012149040840019000BF00BF40
:1033D0000C200290112003900120049003200590FE
:1033E00002A90920C006FEF7AFFB01220421092033
:1033F000C006FEF7AEFC012208210920C006FEF738
:10340000A8FC0A2001F0A4FE00216B2002F075F850
:10341000002802D0012007B000BD0A2001F098FE6C
:1034200000211C2002F069F8002801D00120F2E7F9
:103430000020F0E700100240F0B585B004460D46CC
:103440001646002C03D0002D01D0002E02D1012001
:1034500005B0F0BD062203A93B2002F011F80028B8
:1034600001D00220F4E76846007B01026846407BF9
:1034700001430FB26846807B01026846C07B01436E
:1034800008B202906846007C00026946497C084305
:1034900000B201903846FCF78DFF8D21C9050090E0
:1034A000FCF74AFF20600298FCF784FF8D21C905D4
:1034B0000090FCF741FF28600198FCF77BFF8D210D
:1034C000C9050090FCF738FF30600020C0E700001D
:1034D00070B504460D4616460D490EA0FEF7E4F9F8
:1034E000002801D0012070BDFF20F530FEF71CFB45
:1034F00032462946204600F0E3F8002803D0FEF7C4
:1035000073F80220EFE70120064908700020EAE77F
:103510005B07000062726F6B65722E656D71782EAD
:10352000696F00001000002010B50246002000BFA7
:1035300053065B0E0B54D209002A03D00B5C802487
:1035400023430B54431CD8B2002AF1D110BD000014
:10355000F7B5FFB0FFB086B001243A4800780028E4
:1035600004D101207FB07FB009B0F0BDFFA9C869C8
:103570008007400F302108430190FFA94869FCF7FC
:1035800022FE85B228122146621C94B204AA50542D
:103590002146621C94B204AA555404A908192A466B
:1035A000FFA94969FCF7C9FD601984B2FFA8C06989
:1035B000002813DD2448008800122146621C94B2C2
:1035C00004AA5054204800782146621C94B204AAF0
:1035D00050541D480088401C1B490880FFA9886979
:1035E000FCF7F1FD80B2029004AA1019FFA9029A1B
:1035F0008969FCF7A2FD0298201884B2661E03A90F
:103600003046FFF791FF0746791C04AA8818324616
:1036100004A90131FCF791FD3A4603A9481DFCF7C6
:103620008CFD684601990174791C881981B200915A
:1036300004A80099FEF7B6F8002801D0022091E70F
:1036400000208FE71000002012000020F0B5FFB02E
:10365000FFB085B004460D46FEF782FB07467D218C
:10366000C900FCF743FD0646234608A20121890252
:103670000095019003A801F08DF8002203A90CA089
:10368000FFF766FF7FB07FB005B0F0BD7B22747995
:103690007065223A222573222C226D7367223A220A
:1036A0002573222C227473223A256C757D0000004C
:1036B000636F6C64636861696E2F616C61726D0029
:1036C000F7B5FFB0FFB086B00124022600212246E4
:1036D000641C04A8815404212246641C81544D2199
:1036E0002246641C815451212246641C8154542179
:1036F0002246641C81542246641C815404212246C3
:10370000641C8154FFA88069002807D0FFA8806945
:10371000FCF759FD002801D080200643FFA8C069AE
:10372000002807D0FFA8C069FCF74DFD002801D094
:10373000402006432046611C8CB204A90E54002090
:103740002146621C94B204AA50543C202146621CBB
:1037500094B204AA5054FFA84069002804D0FFA8DE
:103760004069FCF730FD00E0002085B228122146B8
:10377000621C94B204AA50542146621C94B204AA5A
:103780005554002D08DD04A908192A46FFA94969E6
:10379000FCF7D3FC601984B280203040002819D097
:1037A000FFA88069FCF70FFD85B228122146621C34
:1037B00094B204AA50542146621C94B204AA5554EF
:1037C00004A908192A46FFA98969FCF7B6FC601903
:1037D00084B200BF40203040002819D0FFA8C06943
:1037E000FCF7F1FC85B228122146621C94B204AAAF
:1037F00050542146621C94B204AA555404A90819D5
:103800002A46FFA9C969FCF798FC601984B200BF79
:10381000601E029003A90298FFF786FE0746791CF6
:1038200004AA881804A90131029AFCF786FC3A46DA
:1038300003A9481DFCF781FC102168460174791C1E
:103840000298081881B2019104A80199FDF7AAFF16
:10385000002804D001207FB07FB009B0F0BDFF2068
:10386000F530FEF761F90020F5E70000F0B5E5B0AE
:103870003A49086AFCF7C9FD04460D463749C8694C
:10388000FCF7C3FD06460F4634498869FCF7BDFDC9
:103890002391229031494869FCF7B7FD219120908E
:1038A0002E490869FCF7B1FD1F911E902B49C8688D
:1038B000FCF7ABFD1D911C9028498868FCF7A5FD1D
:1038C0001B911A9025494868FCF79FFD19911890A3
:1038D00022490868FCF799FD1791169020488069E5
:1038E0001E49203149791D4A203212790F970E96D0
:1038F00011951094129213911490239922980D917E
:103900000C90219920980B910A901F991E9809916B
:1039100008901D991C98079106901B991A9805917B
:1039200004901999189803910290179916980D4AC6
:1039300001910090FF21013124A800F02BFF01220A
:1039400024A909A0FFF704FE002804D10448C06997
:10395000401C0349C86165B0F0BD00002400002090
:1039600050000020206E0008636F6C64636861691A
:103970006E2F64617461000000B587B0142102A845
:10398000FCF702FC00BF35484069012149040843A7
:1039900032494861084640690121490408400190C4
:1039A00000BF00BF00BF2D484069490008432B49B4
:1039B000486108464069012189040840019000BF20
:1039C00000BF00BF254840694900084323494861BA
:1039D000084640690121C9040840019000BF00BFAA
:1039E00020200290112003900120049003200590D4
:1039F00002A90920C006FEF7A7F8022002900120C4
:103A0000039000200490059002A90920C006FEF74B
:103A10009BF8002202210920C006FEF79AF9072030
:103A200002900120039000200490059002A90C4808
:103A3000FEF78AF8002207210948FEF78AF90120DB
:103A4000400302900120039000200490059002A9F9
:103A50000448FEF779F807B000BD000000100240EE
:103A60000004004800080048074808490860012091
:103A700048600748886000BF0448C0680028FBD140
:103A80000448024908607047555500000030004066
:103A9000FF0F0000CCCC000010B5104810490860A2
:103AA000FF200530486000210D4881600721090290
:103AB000C160002101614161012149028161082148
:103AC000C16100210162416281620A21C162FEF787
:103AD00099FD002801D0FDF717FF10BD003001400F
:103AE000E00000201FB5002000900190029003909C
:103AF000012080070E4908604720486000210C48DB
:103B000081600C49C160002101618161FEF74AFFBB
:103B1000002801D0FDF7F8FE01200003009069465F
:103B20000348FEF77BFF002801D0FDF7EDFE1FBD27
:103B300044010020E703000010B50F480F4908605A
:103B4000E1204002486000210C488160C1600161B1
:103B50000C21416100218161C161FFF7E7F8002874
:103B600001D0FDF7D1FE0548006800682021084318
:103B700002490968086010BD00380140700000204B
:103B80007047000010B5002819DA1A4A03071B0F06
:103B9000083B9B089B00D2588307DC0EFF23A34001
:103BA0009A438B071B0E8407E40EA3401A43114B64
:103BB0000407240F083CA408A4001A5118E00E4A78
:103BC00003231B02D21883089B00D2588307DC0E04
:103BD000FF23A3409A438B071B0E8407E40EA340E8
:103BE0001A43054B032424021B198408A4001A510C
:103BF00010BD00001CED00E000E100E0F1B588B070
:103C0000102304AA02210898FDF7E6FE002802D03E
:103C1000012009B0F0BD04A801F085FA01910090DF
:103C2000FCF707FC04465A492046FCF785FB019047
:103C3000FCF7D2FB06463046FCF7BCFB544900902B
:103C4000FCF73DFB21460190FCF735FB0746514947
:103C50003846FCF771FB01903046FCF7ABFB009057
:103C60000199FCF7D3FA4C494861102304AA0321B7
:103C70000898FDF7B1FE00280ED16846007C532855
:103C800003D06846007C732806D14348406901216F
:103C9000C907484040494861102304AA04210898F4
:103CA000FDF79AFE002801D00120B2E704A801F038
:103CB0003AFA01910090FCF7BCFB054634492846CE
:103CC000FCF73AFB0190FCF787FB03900398FCF7A5
:103CD00071FB2F490090FCF7F2FA29460190FCF79E
:103CE000EAFA02902B490298FCF726FB0190039810
:103CF000FCF760FB00900199FCF788FA264988617F
:103D0000102304AA05210898FDF766FE00280ED1AD
:103D10006846007C572803D06846007C772806D187
:103D20001D4880690121C90748401B49886110234B
:103D300004AA06210898FDF74FFE002806D104A822
:103D4000FCF757FAC1B2144820300171102304AABD
:103D500007210898FDF740FE002806D104A8FCF7CB
:103D600048FAC1B20C4820304171102304AA09213D
:103D70000898FDF731FE002808D104A801F0D3F916
:103D800001910090FCF755FB0349C861002040E712
:103D90000000C84200007042240000207047F8B5BF
:103DA00004460E461546334600220321C90220462A
:103DB000009500F029F8002805D0206E2021084346
:103DC00020660320F8BD334600228021204600955E
:103DD00000F074F8002805D0206E202108432066EA
:103DE0000320EFE7334600220321490220460095D5
:103DF00000F00AF8002805D0206E20210843206634
:103E00000320DFE70020DDE7F8B504460E4617463D
:103E10001D464CE003204002864206D1002F04D10B
:103E20002068017B009168460078681C00283ED01D
:103E3000002D05D0FDF794FF0699401AA84236D30D
:103E400020684068E021884321684860FF210531EF
:103E5000606888420ED10121C903A068884203D05E
:103E60004911A068884205D1206800684021884334
:103E70002168086001214903A06A88420DD100BF72
:103E80002068006888432168086020680068012174
:103E9000490308432168086000BF01215D200155E6
:103EA00000BF00215C20015500BF0320F8BD206841
:103EB00080683040B842ADD10020F7E7F8B504463D
:103EC0000E4617461D4641E0681C00283ED0002DD6
:103ED00005D0FDF745FF0699401AA84236D3206861
:103EE0004068E021884321684860FF21053160680F
:103EF00088420ED10121C903A068884203D049112C
:103F0000A068884205D12068006840218843216864
:103F1000086001214903A06A88420DD100BF2068D2
:103F2000006888432168086020680068012149030F
:103F300008432168086000BF01215D20015500BFD2
:103F400000215C20015500BF0320F8BD2068806877
:103F50003040B04201D1012000E00020B842B3D18E
:103F60000020F2E7704770B500249C2001F009F9A9
:103F700000250DE0641001210920C006FDF7DCFEDC
:103F8000012801D180200443682001F0FAF86D1C5B
:103F9000082DEFDB682001F0F4F8204670BDF7B57E
:103FA00082B006460F460024FDF7DAFE01901FE0BE
:103FB000FDF7D6FE009006E0FDF7D2FE0099401A0C
:103FC0000A2800D91DE001210920C006FDF7B4FE32
:103FD0000128F1D0FFF7C7FF0546781EA04206DD95
:103FE0002046611C8CB235540A2D00D107E000BF79
:103FF000FDF7B6FE0199411A04988142D8D300BF5B
:1040000000BF00203055204605B0F0BD00B585B09A
:1040100000200490039002900190009003A904A84E
:10402000FDF7EAF9002804D10D49049808600398C7
:1040300048606A4601A902A8FFF7FEF9002806D1E8
:104040000749029888600198C86000980861FDF7E8
:104050008BFC002802D101200249887005B000BD08
:10406000240000205000002010B5FDF77FFE10BD99
:1040700000B591B0302105A8FCF786F8002001902A
:1040800002900390049002200590012008901020D7
:10409000099002200D9000210E91C1040F91002182
:1040A000109105A8FEF708F8002801D0FDF72CFCB8
:1040B000072001900220029000200390049001212B
:1040C00001A8FDF7B5FE002801D0FDF71DFC11B0D9
:1040D00000BD000019480068012108431749086025
:1040E0000846406816490840144948600846006878
:1040F00014490840114908600846006801218904F4
:1041000088430E490860084640683F2109048843F7
:104110000A4948600846C06A00090001C8620846AA
:10412000006BFF2154318843044908630846406B03
:10413000400840004863002088607047001002403B
:104140000CB8FFF8FFFFF6FE08B5FDF7F3F80A20FC
:104150001E4988801E4888601E48C8601E48086145
:1041600040034861FDF7F2F8FFF71CF9FDF7D2FBB9
:10417000FCF7DCFFFFF78BF81848FFF76FF818A083
:10418000164B1F22D202142100900846FDF764FC52
:1041900016A0124B1F222C2100901420FDF75CFC6E
:1041A000164800F0D5FF0020FFF758F80022012143
:1041B0001046FDF711F8FF20F53000F0C9FF00228E
:1041C00011461046FDF708F808BD00005000002019
:1041D0000000C8410000A0C00000AA42FF07000084
:1041E000436F6C64436861696E0000004D6F6E69D7
:1041F000746F722076312E3000000000DC05000064
:1042000010B50248FEF7AAFC10BD000044010020D2
:1042100010B500220268244B984206D001239B0768
:10422000984202D0214B984205D170241346A343F3
:104230001A464B681A431C4B984212D001239B0725
:1042400098420ED0194B98420BD0194B984208D087
:10425000184B984205D0184B984202D0174B984201
:1042600006D1032424021346A3431A46CB681A43FB
:1042700080241346A3434C6923431A4602608B688B
:10428000C3620B688362084B984208D0094B98427E
:1042900005D0094B984202D0084B984201D10B69D6
:1042A00003630123436110BD002C01400004004062
:1042B000002000400040014000440140004801400F
:1042C00070B50C4600218168FF2636020D46B543C5
:1042D00029461D02154325432943816070BD10B551
:1042E0000A460021816870240B46A3431946072320
:1042F00013431943816010BD70B50B46144600216D
:104300000022026A056A6D086D0005628169F02667
:104310000D46B5432946250129430A261546B543CE
:104320002A4615461D432A468161026270BD70B55A
:104330000B46144600210022056A1026B54305628B
:104340008169026A0F2636030D46B54329462503C7
:104350002943A0261546B5432A461D012A438161FB
:10436000026270BD818CC907C90F002908D001689D
:104370004968012252049143826A114302685160E4
:104380000222416A1140002907D001684968D2031E
:104390009143C26A1143026851600422416A11408C
:1043A000002907D00168496812049143026B114348
:1043B000026851600822416A1140002907D0016853
:1043C000496812039143426B114302685160102205
:1043D000416A1140002907D001688968120291439F
:1043E000826B1143026891602022416A11400029CA
:1043F00007D00168896812029143C26B11430268B9
:1044000091604022416A1140002915D00168496835
:1044100092039143026C114302685160012212051C
:10442000016C914208D10168496803225205914309
:10443000426C1143026851608022416A1140002998
:1044400007D00168496812039143826C11430268E6
:104450005160704738B5044600250020E066FDF73E
:104460007FFC054619492068884223D120680068EE
:104470000821084008280BD115482B460022890442
:104480000090204600F018F9002801D0032038BD24
:10449000206800680421084004280BD10C482B46F2
:1044A000002209050090204600F006F9002801D0FE
:1044B0000320ECE72021692001556A20015500BF47
:1044C00000216820015500BF0020E0E700380140CE
:1044D000FFFFFF01FEB5044600251026002700203F
:1044E000029001902169A068084361690843E1696D
:1044F0000843054620680068684908402843216849
:10450000086020684068032109038843E168084384
:1045100021684860216AA0690843054620688068D0
:104520000B210902884328432168886000BF5C4949
:104530002068884217D15B48006B8007800F0028F5
:1045400006D0012808D0022808D0032808D101E0AD
:10455000002607E0022605E0042603E0082601E025
:10456000102600BF06E050492068884201D100268D
:1045700000E0102600BF0121C903E069884249D14B
:10458000042E20D004DC002E07D0022E32D111E000
:10459000082E25D0102E2DD12DE0FDF719FD40005D
:1045A00061684908401800906168FBF79FFD80B280
:1045B000029023E061684A083C4BD018FBF796FD57
:1045C00080B202901AE0FDF715FD400061684908CD
:1045D000401800906168FBF789FD80B202900DE001
:1045E00061684A0801231B04D018FBF77FFD80B2E5
:1045F000029003E000BF0120019000BF00BF2C49E2
:1046000002980840074602980007400F07432068B9
:10461000C76040E0042E21D004DC002E07D0022E1B
:1046200034D111E0082E26D0102E2FD12FE0FDF727
:10463000CFFC61684908401800906168FBF756FD9F
:1046400080B22168C86025E061684A08194BD0181B
:10465000FBF74CFD80B22168C8601BE0FDF7CAFC87
:1046600061684908401800906168FBF73FFD80B21F
:104670002168C8600EE061684A080123DB03D01896
:10468000FBF734FD80B22168C86003E000BF012061
:10469000019000BF00BF0198FEBD0000F369FFFF5D
:1046A0000038014000100240004400400024F400A3
:1046B000F0FF000000127A00FFB581B004460D46FD
:1046C00017460A9E24E0701C002821D0002E05D039
:1046D000FDF746FB0499401AB04219D920680068DA
:1046E000FF21A13188432168086020688068400864
:1046F0004000216888602021692001556A20015509
:1047000000BF00216820015500BF032005B0F0BDA7
:104710002068C0692840A84201D1012000E00020A3
:10472000B842D0D00020F1E714480068C0692021C9
:104730000840202820D111490968898CC8B2104945
:104740000988104A914212DA0D4A11884A1C0C4B12
:104750001A800D4A50540A2801D03E2807D1002162
:10476000094A074B1B88D1540121084A11702021A6
:10477000024A1268116200BF7047000070000020FA
:104780000A000020FF010000840300200C0000202C
:10479000704700000FB41CB50246002007AC00298A
:1047A0000BD0491E01910092064B6A46214606989D
:1047B00000F012F9009A002111701CBC08BC04B072
:1047C00018470000115100082021020C01D01021CF
:1047D0001046020A01D010460839020901D01046DD
:1047E000091F820801D01046891E420801D0881E88
:1047F0007047081A704730B47446641E2578641CEC
:10480000AB4204D3635D5B00E31830BC18471D4620
:10481000F8E70000004870472000002001480068C9
:10482000704700002000002002E008C8121F08C1E5
:10483000002AFAD170477047002001E001C1121F21
:10484000002AFBD170470000014908607047000052
:1048500020000020F0B51FB486B00998089A030D17
:104860000021024314D05148514A181850430514EE
:104870001198012810981AD0281A401C00264D4F74
:104880004D49009601910490002812DA444211E04B
:104890001198012449A3012801D11098C143069819
:1048A000119A84600360C26041600BB0F0BD404269
:1048B000E4E70446210500203F4A001C51410391D2
:1048C000029012E0E00707D032463B46019900987B
:1048D000FBF78EFF0191009032463B461046194689
:1048E000FBF786FF06460F466410002CEAD10498B9
:1048F000039B0028029A0999089806DAFBF778FFCB
:10490000019B009AFBF774FF05E0FBF7D9FF019BC1
:10491000009AFBF7D5FF04460E460022284BFCF711
:1049200067F803D80020C043014607E00022254B6A
:1049300020463146FBF7AAFEFCF73AF8102409E0BE
:10494000002C0ADB0A220023FBF7A4FD079B303270
:104950001A55641E02460A43F2D11122641C079BB9
:10496000121B1C19119B012B03D0012308430ED1EC
:104970000AE0084304D0112010900020119077E73E
:104980001098151A6D1E0BE01098824202DD00236C
:104990006D1C03E0824201DA00236D1E002BEED075
:1049A000069811998260C16030C07EE701FCFFFF6C
:1049B000104D0000000014400000F03F30000000E7
:1049C0000000F0430000E03F30380A2801D2012007
:1049D0007047002070470000FFB597B006460025DD
:1049E00018E2252877D100242746FD49049400E0E9
:1049F0000443761C32780120203A90400842F7D1D7
:104A000030782A280ED00222307801463039092920
:104A100016D804990A235943303940181443761C98
:104A20000490F1E7189802C804911890002904DA5C
:104A30000120400304434842049002200443761CB2
:104A400030782E2814D1042004437078761C2A284C
:104A500009D11898761C80C8189009E00A214F43A4
:104A6000303FC719761C3078014630390929F5D90D
:104A700030786C2810D006DC4C281AD068280ED06C
:104A80006A2817D104E0742813D07A2812D110E0D4
:104A90000120400504430CE00121090501E0032148
:104AA00009050C437178814203D1012000052418C7
:104AB000761C761C3078119066280BD013DC5828B1
:104AC0007DD009DC00287BD04528F6D04628F4D0DC
:104AD00047281AD1A5E118E0632835D0642870D0A2
:104AE000652812D19DE170286CD008DC6728F1D0D0
:104AF00069287BD06E280DD06F2806D1BAE07328C4
:104B00002ED0752871D0782859D01A9A19999047C3
:104B10006D1C7EE16002400F022809D003280DD0F1
:104B20000428189801680DD00D60001D189070E1E0
:104B30001898EA1701680D604A60F6E7189801684E
:104B40000D80F2E70D70F0E718986A46017811724F
:104B5000001D18900020507202A80090012005E06E
:104B6000189802C8189000200091C04361070DD525
:104B7000002101E00199491C0191B94212DA8142F8
:104B8000F8DB009A515C0029F4D10BE0002101E030
:104B90000199491C01918142FADB019A0099895CD3
:104BA0000029F5D1019904981A9B471A21463846E5
:104BB000199A00F097FA0199401945180BE04FE057
:104BC0002CE113E04EE0009800990078491C009118
:104BD0001A9A199990470198401E0190401CF2D1F1
:104BE000214638461A9B199A10E137E00A20002125
:104BF000009001916002410F022907D0189A01CA62
:104C00001892C2179446032908D00AE01898C01DCC
:104C1000C108C90005C91891944607E000B2C2173F
:104C20009446042902D140B2C1178C460022614645
:104C3000944506DA0A460021404291418C462D21D6
:104C400002E0210504D52B216A461173012103E0FE
:104C5000E10701D02021F7E7029155E00A200AE0A0
:104C6000102008E01020009000210420044301914E
:104C7000082703E008200021019100906002410F05
:104C8000022907D0189A01CA1892002294460329D3
:104C900008D008E01898C01DC108C90005C91891BE
:104CA000944603E080B2042900D1C0B200210291F1
:104CB000210729D51199702906D0009A1021019B4E
:104CC0004A401A4305D00EE040216A461173012183
:104CD00008E06146014306D030216A4611731199FC
:104CE000517302210291009A0821019B4A401A4304
:104CF0000AD16146014301D1610705D530216A46D9
:104D0000117301217F1E02911199582904D035A1F8
:104D10000E910DA90D910DE037A1F9E76146019BB8
:104D2000009AFBF7B7FB0E9B8C469B5C0D9A521EBC
:104D30000D92137061460143F0D10D9805A9081A30
:104D400020300190600703D501200004844300E077
:104D500001270198874201DD381A00E000200199FF
:104D600000904118029809180498401A0490E00332
:104D700006D421461A9B199A049800F0B3F94519F4
:104D8000002706E003A81A9AC05D199990476D1C88
:104D90007F1C02988742F5DBE0030CD521461A9B65
:104DA000199A049800F09EF9451904E01A9A3020E7
:104DB000199990476D1C0099481E00900029F5DC58
:104DC00008E00D980D990078491C0D911A9A1999CF
:104DD00090476D1C0199481E01900029F1DC63E1A8
:104DE00009280100303132333435363738396162C1
:104DF0006364656600000000303132333435363785
:104E000038394142434445460000000000F05AF959
:104E10004519761C3078002800D0E2E528461BB002
:104E2000F0BD600700D406271898C01DC108C9004E
:104E300048680A680831C30FDB071891190001D0D0
:104E40009CA108E0210501D59BA104E0E10701D068
:104E50009AA100E09AA1430011985B08109165287F
:104E60000CD006DC452809D046281DD0472841D162
:104E700041E0662818D067283CD13CE00021112F82
:104E800001DB112000E0781C0191009008A911A815
:104E9000FFF7E0FC139905910021119A15927F1CF0
:104EA00012980197009150E00120C0070390012063
:104EB000019008A9009711A8FFF7CCFC139A149948
:104EC00005920022119B009212981593059A019267
:104ED000002901D0104602E0791C40180190381AD0
:104EE00001D5019804E04042401E0090781C0190DA
:104EF000C01B029043E0012F00DA01270021112F8F
:104F000001DD112000E038460191009008A911A8A8
:104F1000FFF7A0FC13990591119A002112981592A0
:104F20000091019721070CD40599B94201DB019941
:104F300000E00191012904DD159A491E515C3029D8
:104F400006D0B84201DA011D05DA0121029115E00F
:104F50000199491EEDE7002805DC009941180091F0
:104F60000199091A03E0019A411C914200DD019167
:104F70000099401A401C02900120C00703902007AE
:104F800006D402990198814202DB0020C0430290BE
:104F900000206946C87707AF012103980337C90786
:104FA000884224D0022011902B20129003980028D0
:104FB0000CDA404203902D20129007E00A2103985A
:104FC000FBF794F830317F1E039039701199481E19
:104FD00011900029F2DC03980028EFD1791E129875
:104FE00008703078202108404530BF1E387006A870
:104FF000C01BC01D039010980078002800D001202D
:10500000019941180298C0170918039809180498C3
:10501000401A401E0490E00306D421461A9B199AB8
:10502000049800F05FF8451910980078002803D024
:105030001A9A199990476D1CE00324D521461A9BB2
:10504000199A049800F04EF845191CE000980028C1
:1050500007DB00990598884203DD1598405C199993
:1050600001E0199930201A9A904700986D1C401C55
:1050700000900298401E0290002804D11A9A2E2017
:10508000199990476D1C0199481E01900029DDDC9B
:1050900005E038781A9A7F1C199990476D1C03997E
:1050A000481E03900029F4DC21461A9B199A0498A3
:1050B000ACE600002D0000002B00000020000000E6
:1050C00000000000F8B5044600251E461746880477
:1050D00004D405E039462020B0476D1C641EF9D584
:1050E0002846F8BDFFB50446002581B01E46C8031A
:1050F00001D5302700E02027880404D505E0384694
:105100000399B0476D1C641EF9D5284605B0F0BD63
:105110004A68002A06D00A68531C0B601070486861
:10512000401E4860704730B583B00446FFF776FBF9
:105130000546002000900246019021466846FBF794
:10514000F4F92846FFF780FB0199009803B030BDC1
:1051500010B504462046FCF7E7FC10BD08B50DE08D
:105160000021009104E069460988491C8AB2009236
:10517000694609880C29F6DB411E88B20028EFDC5D
:1051800008BD30224243910800E000BF0A46491E94
:10519000002AFAD1704710B50520FFF7DFFF10BDD8
:1051A00070B506460024012208210920C006FCF73C
:1051B000D0FD00251BE06006040E01220421092019
:1051C000C006FCF7C6FDFFF7E6FF08210920C00670
:1051D000FCF7B2FD002801D0012004430022042185
:1051E0000920C006FCF7B5FDFFF7D5FF6D1C082DA3
:1051F000E1DB304600F002F8204670BD10B50446F1
:10520000002C06D0012208210920C006FCF7A1FDD0
:1052100005E0002208210920C006FCF79AFDFFF7EF
:10522000BAFF012204210920C006FCF792FDFFF716
:10523000B2FF002204210920C006FCF78AFDFFF717
:10524000AAFF10BD10B5012208210920C006FCF7F5
:1052500080FD012204210920C006FCF77AFDFFF73A
:105260009AFF002208210920C006FCF772FDFFF713
:1052700092FF002204210920C006FCF76AFDFFF717
:105280008AFF10BD10B5002208210920C006FCF7D6
:1052900060FD012204210920C006FCF75AFDFFF73A
:1052A0007AFF012208210920C006FCF752FDFFF712
:1052B00072FF10BD10B5012208210920C006FCF7BD
:1052C00048FDFFF768FF012204210920C006FCF712
:1052D00040FDFFF760FF08210920C006FCF72CFD08
:1052E0000446002204210920C006FCF732FDFFF726
:1052F00052FF204610BD70B50446002525E08020F1
:105300002040002806D0012208210920C006FCF711
:1053100020FD05E0002208210920C006FCF719FD48
:10532000FFF739FF012204210920C006FCF711FD17
:10533000FFF731FF002204210920C006FCF709FD18
:10534000FFF729FF6006040E6D1C082DD7DB70BD2A
:10535000FCF714FDFEF7F8FEFCF786F9002801D1F2
:10536000012000E00020334908700846007800283A
:105370000AD031A134A0FCF74FF9002801D1012057
:1053800000E000202B4908702A48007800280BD044
:105390002CA22CA12FA0FEF79BF8002801D1012000
:1053A00000E0002023494870FEF75EFB40E0FCF778
:1053B0004EFB04462D480068211A1E4880887D2235
:1053C000D2005043814221D328480460FEF71EFEDC
:1053D000FBF728FF17484078002801D0FEF746FA6F
:1053E0001448806913498988401812498861FDF77B
:1053F000FFFD012200210846FBF7EEFE3220FFF7F9
:10540000A7FE002211461046FBF7E6FE1848194990
:10541000086019480068201A7D21C900884206D317
:1054200015480460012149031448FCF78EFC00BFB5
:10543000BDE7000050000020596F75725061737312
:10544000776F726400000000596F75725769466982
:1054500000000000436F6C64436861696E4D6F6EBD
:1054600069746F725F30303100000000000000206E
:10547000AAAA0000003000400400002000080048F4
:10548000F8B507460E461546FFF7DCFED020FFF7BD
:1054900032FFFFF70FFF002803D0FFF7F3FE0120D4
:1054A000F8BD3846FFF727FFFFF704FF002803D0B9
:1054B000FFF7E8FE0120F3E7FFF7C4FED120FFF776
:1054C0001AFFFFF7F7FE002803D0FFF7DBFE0120ED
:1054D000E6E700240BE0691EA14201DC012100E0A7
:1054E00000210846FFF75CFE3055601CC4B2AC4298
:1054F000F1DBFFF7C7FE0020D2E770B505460C468A
:10550000FFF7A0FED020FFF7F6FEFFF7D3FE00283E
:1055100003D0FFF7B7FE012070BD2846FFF7EBFE72
:10552000FFF7C8FE002803D0FFF7ACFE0120F3E729
:105530002046FFF7E0FEFFF7BDFE002803D0FFF78F
:10554000A1FE0120E8E7FFF79DFE0020E4E7000050
:10555000000000000000000000000000000000103B
:10556000101010101010101000001010000000009B
:105570006C6C2424000000000100000000000024E6
:10558000242424FE48484848FC9090909000001045
:105590003C5492905038141212925478100000002B
:1055A000225C94A8481010242A525488000000005D
:1055B00030484850206E54948C888A740000000053
:1055C0003030101000000000000000000000000457
:1055D0000810102020202020201010080400008037
:1055E00040202010101010101020204080000000DB
:1055F0000000105438103854100000000000000063
:105600000010101010FE101010100000000000001C
:10561000000000000000000000001010200000004A
:105620000000000000FE000000000000000000007C
:10563000000000000000000000001010000000004A
:105640000404080810102020404080800000000062
:105650003844828282828282828244380000000042
:1056600010701010101010101010107C00000000AE
:105670003844828204081020408284FC000000002C
:1056800038448202043804020282443800000000D8
:10569000040C141424244444FE04040E00000000EE
:1056A000FC808080B8C482020282847800000000FE
:1056B0003C428280B8C4828282824438000000006A
:1056C0007E42820404080808101010100000000038
:1056D0003844828244384482828244380000000088
:1056E000384482828282463A0282443800000000B6
:1056F000000010100000000010100000000000006A
:105700000000101000000000001010200000000039
:10571000000006186080601806000000000000000D
:1057200000000000FE0000FE00000000000000007D
:105730000000C0300C020C30C00000000000003837
:1057400044828202040810101000101000000000B3
:105750003844829AAAAAAAAAAA9680423C000000CB
:1057600010101028282844447C4444EE0000000017
:10577000FC424242427C4242424242FC0000000063
:105780003C44828080808080828244380000000017
:10579000F844424242424242424244F80000000081
:1057A000FC444240447C4440404244FC0000000031
:1057B000FC444240447C4440404040F00000000033
:1057C000344C828080808E8484844C3400000000BD
:1057D000EE444444447C4444444444EE000000000D
:1057E0007C101010101010101010107C0000000021
:1057F0003E080808080808080888887000000000AB
:10580000EE44484850605048484444EE00000000D0
:10581000E040404040404040404244FC0000000026
:10582000C6446C6C6C545454444444EE0000000074
:10583000CE4464646454544C4C4C44E40000000076
:105840003844828282828282828244380000000050
:10585000F844424242447840404040E000000000AA
:10586000384482828282828282BA443C02000000F2
:10587000F048444444487048444444E60000000072
:105880003C44828040300C020282447800000000D8
:105890007C549210101010101010103800000000EE
:1058A000EE4444444444444444444438000000002A
:1058B000EE4444444428282828101010000000001A
:1058C000EE4454545454545428282828000000000E
:1058D000EE44442828101028284444EE000000001C
:1058E000EE44442828281010101010380000000042
:1058F0007E44840808102020408284FC0000001CA4
:105900001010101010101010101010101C000000BB
:10591000EE445454FE5454542828282800000070A3
:105920001010101010101010101010107000003017
:10593000488400000000000000000000000000009B
:10594000000000000000000000000000FE00004019
:105950002000000000000000000000000000000027
:10596000000000007884047C84848C7600000000B1
:10597000C040404058644242424264580000000027
:10598000000000003844808080804438000000001F
:105990000C040404344C848484844C3600000000DD
:1059A00000000000788484FC80808478000000007F
:1059B00018242020F8202020202020700000000043
:1059C000000000003A444478807C82827C00000021
:1059D000C040404058644444444444EE0000000049
:1059E00010100000301010101010103800000000CF
:1059F0001010000030101010101010906000000007
:105A0000C04040405C485060504844EE00000000F8
:105A1000301010101011101010101039000000007C
:105A200000000000ACD29292929292D60000000048
:105A30000000000058E44444444444EE00000000E8
:105A40000000000038448282828244380000000056
:105A500000000000D864424242645840E000000068
:105A600000000000364C8484844C34040E00000096
:105A7000000000006C30202020202070000000007A
:105A800000000000788884601884447800000000DA
:105A900000202020F82020202020241800000000D2
:105AA00000000000C64242424242463A0000000066
:105AB00000000000EE4444282828101000000000D8
:105AC00000000000EE444454542828280000000040
:105AD00000000000EE442810102844EE00000000F2
